{
  "_format": "hh-sol-artifact-1",
  "contractName": "Voting",
  "sourceName": "contracts/Voting.sol",
  "abi": [
    {
      "inputs": [],
      "stateMutability": "nonpayable",
      "type": "constructor"
    },
    {
      "anonymous": false,
      "inputs": [
        {
          "indexed": true,
          "internalType": "uint256",
          "name": "candidateId",
          "type": "uint256"
        },
        {
          "indexed": false,
          "internalType": "string",
          "name": "name",
          "type": "string"
        }
      ],
      "name": "CandidateAdded",
      "type": "event"
    },
    {
      "anonymous": false,
      "inputs": [
        {
          "indexed": true,
          "internalType": "address",
          "name": "voter",
          "type": "address"
        },
        {
          "indexed": true,
          "internalType": "uint256",
          "name": "candidateId",
          "type": "uint256"
        }
      ],
      "name": "Voted",
      "type": "event"
    },
    {
      "anonymous": false,
      "inputs": [
        {
          "indexed": true,
          "internalType": "address",
          "name": "voter",
          "type": "address"
        }
      ],
      "name": "VoterRegistered",
      "type": "event"
    },
    {
      "inputs": [
        {
          "internalType": "string",
          "name": "_name",
          "type": "string"
        }
      ],
      "name": "addCandidate",
      "outputs": [],
      "stateMutability": "nonpayable",
      "type": "function"
    },
    {
      "inputs": [
        {
          "internalType": "uint256",
          "name": "",
          "type": "uint256"
        }
      ],
      "name": "candidates",
      "outputs": [
        {
          "internalType": "uint256",
          "name": "id",
          "type": "uint256"
        },
        {
          "internalType": "string",
          "name": "name",
          "type": "string"
        },
        {
          "internalType": "uint256",
          "name": "voteCount",
          "type": "uint256"
        }
      ],
      "stateMutability": "view",
      "type": "function"
    },
    {
      "inputs": [],
      "name": "getAllCandidates",
      "outputs": [
        {
          "components": [
            {
              "internalType": "uint256",
              "name": "id",
              "type": "uint256"
            },
            {
              "internalType": "string",
              "name": "name",
              "type": "string"
            },
            {
              "internalType": "uint256",
              "name": "voteCount",
              "type": "uint256"
            }
          ],
          "internalType": "struct Voting.Candidate[]",
          "name": "",
          "type": "tuple[]"
        }
      ],
      "stateMutability": "view",
      "type": "function"
    },
    {
      "inputs": [],
      "name": "getCandidateCount",
      "outputs": [
        {
          "internalType": "uint256",
          "name": "",
          "type": "uint256"
        }
      ],
      "stateMutability": "view",
      "type": "function"
    },
    {
      "inputs": [
        {
          "internalType": "address",
          "name": "",
          "type": "address"
        }
      ],
      "name": "hasVoted",
      "outputs": [
        {
          "internalType": "bool",
          "name": "",
          "type": "bool"
        }
      ],
      "stateMutability": "view",
      "type": "function"
    },
    {
      "inputs": [],
      "name": "owner",
      "outputs": [
        {
          "internalType": "address",
          "name": "",
          "type": "address"
        }
      ],
      "stateMutability": "view",
      "type": "function"
    },
    {
      "inputs": [
        {
          "internalType": "address",
          "name": "_voter",
          "type": "address"
        }
      ],
      "name": "registerVoter",
      "outputs": [],
      "stateMutability": "nonpayable",
      "type": "function"
    },
    {
      "inputs": [
        {
          "internalType": "address",
          "name": "",
          "type": "address"
        }
      ],
      "name": "registeredVoters",
      "outputs": [
        {
          "internalType": "bool",
          "name": "",
          "type": "bool"
        }
      ],
      "stateMutability": "view",
      "type": "function"
    },
    {
      "inputs": [
        {
          "internalType": "address",
          "name": "_voter",
          "type": "address"
        }
      ],
      "name": "unregisterVoter",
      "outputs": [],
      "stateMutability": "nonpayable",
      "type": "function"
    },
    {
      "inputs": [
        {
          "internalType": "uint256",
          "name": "_candidateId",
          "type": "uint256"
        }
      ],
      "name": "vote",
      "outputs": [],
      "stateMutability": "nonpayable",
      "type": "function"
    },
    {
      "inputs": [
        {
          "internalType": "address",
          "name": "_voter",
          "type": "address"
        },
        {
          "internalType": "uint256",
          "name": "_candidateId",
          "type": "uint256"
        }
      ],
      "name": "voteFor",
      "outputs": [],
      "stateMutability": "nonpayable",
      "type": "function"
    }
  ],
  "bytecode": "0x6080604052348015600f57600080fd5b50336000806101000a81548173ffffffffffffffffffffffffffffffffffffffff021916908373ffffffffffffffffffffffffffffffffffffffff1602179055506119288061005f6000396000f3fe608060405234801561001057600080fd5b50600436106100a95760003560e01c80633477ee2e116100715780633477ee2e1461015257806338db6dd314610184578063462e91ec146101a05780637ed17751146101bc5780638da5cb5b146101d8578063a9ff6df1146101f6576100a9565b80630121b93f146100ae57806309eef43e146100ca57806324d6d601146100fa5780632e6997fe1461011657806330a5634714610134575b600080fd5b6100c860048036038101906100c39190610d1d565b610226565b005b6100e460048036038101906100df9190610da8565b6102c1565b6040516100f19190610df0565b60405180910390f35b610114600480360381019061010f9190610e0b565b6102e1565b005b61011e61040b565b60405161012b9190610ffc565b60405180910390f35b61013c610510565b604051610149919061102d565b60405180910390f35b61016c60048036038101906101679190610d1d565b61051d565b60405161017b93929190611092565b60405180910390f35b61019e60048036038101906101999190610da8565b6105df565b005b6101ba60048036038101906101b59190611205565b610798565b005b6101d660048036038101906101d19190610da8565b6108df565b005b6101e0610ae1565b6040516101ed919061125d565b60405180910390f35b610210600480360381019061020b9190610da8565b610b05565b60405161021d9190610df0565b60405180910390f35b33600360008273ffffffffffffffffffffffffffffffffffffffff1673ffffffffffffffffffffffffffffffffffffffff16815260200190815260200160002060009054906101000a900460ff166102b3576040517f08c379a00000000000000000000000000000000000000000000000000000000081526004016102aa906112c4565b60405180910390fd5b6102bd3383610b25565b5050565b60016020528060005260406000206000915054906101000a900460ff1681565b60008054906101000a900473ffffffffffffffffffffffffffffffffffffffff1673ffffffffffffffffffffffffffffffffffffffff163373ffffffffffffffffffffffffffffffffffffffff161461036f576040517f08c379a000000000000000000000000000000000000000000000000000000000815260040161036690611356565b60405180910390fd5b81600360008273ffffffffffffffffffffffffffffffffffffffff1673ffffffffffffffffffffffffffffffffffffffff16815260200190815260200160002060009054906101000a900460ff166103fc576040517f08c379a00000000000000000000000000000000000000000000000000000000081526004016103f3906112c4565b60405180910390fd5b6104068383610b25565b505050565b60606002805480602002602001604051908101604052809291908181526020016000905b8282101561050757838290600052602060002090600302016040518060600160405290816000820154815260200160018201805461046c906113a5565b80601f0160208091040260200160405190810160405280929190818152602001828054610498906113a5565b80156104e55780601f106104ba576101008083540402835291602001916104e5565b820191906000526020600020905b8154815290600101906020018083116104c857829003601f168201915b505050505081526020016002820154815250508152602001906001019061042f565b50505050905090565b6000600280549050905090565b6002818154811061052d57600080fd5b9060005260206000209060030201600091509050806000015490806001018054610556906113a5565b80601f0160208091040260200160405190810160405280929190818152602001828054610582906113a5565b80156105cf5780601f106105a4576101008083540402835291602001916105cf565b820191906000526020600020905b8154815290600101906020018083116105b257829003601f168201915b5050505050908060020154905083565b60008054906101000a900473ffffffffffffffffffffffffffffffffffffffff1673ffffffffffffffffffffffffffffffffffffffff163373ffffffffffffffffffffffffffffffffffffffff161461066d576040517f08c379a000000000000000000000000000000000000000000000000000000000815260040161066490611356565b60405180910390fd5b600360008273ffffffffffffffffffffffffffffffffffffffff1673ffffffffffffffffffffffffffffffffffffffff16815260200190815260200160002060009054906101000a900460ff16156106fa576040517f08c379a00000000000000000000000000000000000000000000000000000000081526004016106f190611422565b60405180910390fd5b6001600360008373ffffffffffffffffffffffffffffffffffffffff1673ffffffffffffffffffffffffffffffffffffffff16815260200190815260200160002060006101000a81548160ff0219169083151502179055508073ffffffffffffffffffffffffffffffffffffffff167fb6be2187d059cc2a55fe29e0e503b566e1e0f8c8780096e185429350acffd3dd60405160405180910390a250565b60008054906101000a900473ffffffffffffffffffffffffffffffffffffffff1673ffffffffffffffffffffffffffffffffffffffff163373ffffffffffffffffffffffffffffffffffffffff1614610826576040517f08c379a000000000000000000000000000000000000000000000000000000000815260040161081d90611356565b60405180910390fd5b60006002805490509050600260405180606001604052808381526020018481526020016000815250908060018154018082558091505060019003906000526020600020906003020160009091909190915060008201518160000155602082015181600101908161089691906115ee565b50604082015181600201555050807fe83b2a43e7e82d975c8a0a6d2f045153c869e111136a34d1889ab7b598e396a3836040516108d391906116c0565b60405180910390a25050565b60008054906101000a900473ffffffffffffffffffffffffffffffffffffffff1673ffffffffffffffffffffffffffffffffffffffff163373ffffffffffffffffffffffffffffffffffffffff161461096d576040517f08c379a000000000000000000000000000000000000000000000000000000000815260040161096490611356565b60405180910390fd5b600360008273ffffffffffffffffffffffffffffffffffffffff1673ffffffffffffffffffffffffffffffffffffffff16815260200190815260200160002060009054906101000a900460ff166109f9576040517f08c379a00000000000000000000000000000000000000000000000000000000081526004016109f0906112c4565b60405180910390fd5b600160008273ffffffffffffffffffffffffffffffffffffffff1673ffffffffffffffffffffffffffffffffffffffff16815260200190815260200160002060009054906101000a900460ff1615610a86576040517f08c379a0000000000000000000000000000000000000000000000000000000008152600401610a7d90611754565b60405180910390fd5b6000600360008373ffffffffffffffffffffffffffffffffffffffff1673ffffffffffffffffffffffffffffffffffffffff16815260200190815260200160002060006101000a81548160ff02191690831515021790555050565b60008054906101000a900473ffffffffffffffffffffffffffffffffffffffff1681565b60036020528060005260406000206000915054906101000a900460ff1681565b600160008373ffffffffffffffffffffffffffffffffffffffff1673ffffffffffffffffffffffffffffffffffffffff16815260200190815260200160002060009054906101000a900460ff1615610bb2576040517f08c379a0000000000000000000000000000000000000000000000000000000008152600401610ba9906117c0565b60405180910390fd5b6002805490508110610bf9576040517f08c379a0000000000000000000000000000000000000000000000000000000008152600401610bf09061182c565b60405180910390fd5b60018060008473ffffffffffffffffffffffffffffffffffffffff1673ffffffffffffffffffffffffffffffffffffffff16815260200190815260200160002060006101000a81548160ff02191690831515021790555060028181548110610c6457610c6361184c565b5b90600052602060002090600302016002016000815480929190610c86906118aa565b9190505550808273ffffffffffffffffffffffffffffffffffffffff167f4d99b957a2bc29a30ebd96a7be8e68fe50a3c701db28a91436490b7d53870ca460405160405180910390a35050565b6000604051905090565b600080fd5b600080fd5b6000819050919050565b610cfa81610ce7565b8114610d0557600080fd5b50565b600081359050610d1781610cf1565b92915050565b600060208284031215610d3357610d32610cdd565b5b6000610d4184828501610d08565b91505092915050565b600073ffffffffffffffffffffffffffffffffffffffff82169050919050565b6000610d7582610d4a565b9050919050565b610d8581610d6a565b8114610d9057600080fd5b50565b600081359050610da281610d7c565b92915050565b600060208284031215610dbe57610dbd610cdd565b5b6000610dcc84828501610d93565b91505092915050565b60008115159050919050565b610dea81610dd5565b82525050565b6000602082019050610e056000830184610de1565b92915050565b60008060408385031215610e2257610e21610cdd565b5b6000610e3085828601610d93565b9250506020610e4185828601610d08565b9150509250929050565b600081519050919050565b600082825260208201905092915050565b6000819050602082019050919050565b610e8081610ce7565b82525050565b600081519050919050565b600082825260208201905092915050565b60005b83811015610ec0578082015181840152602081019050610ea5565b60008484015250505050565b6000601f19601f8301169050919050565b6000610ee882610e86565b610ef28185610e91565b9350610f02818560208601610ea2565b610f0b81610ecc565b840191505092915050565b6000606083016000830151610f2e6000860182610e77565b5060208301518482036020860152610f468282610edd565b9150506040830151610f5b6040860182610e77565b508091505092915050565b6000610f728383610f16565b905092915050565b6000602082019050919050565b6000610f9282610e4b565b610f9c8185610e56565b935083602082028501610fae85610e67565b8060005b85811015610fea5784840389528151610fcb8582610f66565b9450610fd683610f7a565b925060208a01995050600181019050610fb2565b50829750879550505050505092915050565b600060208201905081810360008301526110168184610f87565b905092915050565b61102781610ce7565b82525050565b6000602082019050611042600083018461101e565b92915050565b600082825260208201905092915050565b600061106482610e86565b61106e8185611048565b935061107e818560208601610ea2565b61108781610ecc565b840191505092915050565b60006060820190506110a7600083018661101e565b81810360208301526110b98185611059565b90506110c8604083018461101e565b949350505050565b600080fd5b600080fd5b7f4e487b7100000000000000000000000000000000000000000000000000000000600052604160045260246000fd5b61111282610ecc565b810181811067ffffffffffffffff82111715611131576111306110da565b5b80604052505050565b6000611144610cd3565b90506111508282611109565b919050565b600067ffffffffffffffff8211156111705761116f6110da565b5b61117982610ecc565b9050602081019050919050565b82818337600083830152505050565b60006111a86111a384611155565b61113a565b9050828152602081018484840111156111c4576111c36110d5565b5b6111cf848285611186565b509392505050565b600082601f8301126111ec576111eb6110d0565b5b81356111fc848260208601611195565b91505092915050565b60006020828403121561121b5761121a610cdd565b5b600082013567ffffffffffffffff81111561123957611238610ce2565b5b611245848285016111d7565b91505092915050565b61125781610d6a565b82525050565b6000602082019050611272600083018461124e565b92915050565b7f566f746572206973206e6f742072656769737465726564000000000000000000600082015250565b60006112ae601783611048565b91506112b982611278565b602082019050919050565b600060208201905081810360008301526112dd816112a1565b9050919050565b7f4f6e6c79206f776e65722063616e20706572666f726d2074686973206163746960008201527f6f6e000000000000000000000000000000000000000000000000000000000000602082015250565b6000611340602283611048565b915061134b826112e4565b604082019050919050565b6000602082019050818103600083015261136f81611333565b9050919050565b7f4e487b7100000000000000000000000000000000000000000000000000000000600052602260045260246000fd5b600060028204905060018216806113bd57607f821691505b6020821081036113d0576113cf611376565b5b50919050565b7f566f74657220697320616c726561647920726567697374657265640000000000600082015250565b600061140c601b83611048565b9150611417826113d6565b602082019050919050565b6000602082019050818103600083015261143b816113ff565b9050919050565b60008190508160005260206000209050919050565b60006020601f8301049050919050565b600082821b905092915050565b6000600883026114a47fffffffffffffffffffffffffffffffffffffffffffffffffffffffffffffffff82611467565b6114ae8683611467565b95508019841693508086168417925050509392505050565b6000819050919050565b60006114eb6114e66114e184610ce7565b6114c6565b610ce7565b9050919050565b6000819050919050565b611505836114d0565b611519611511826114f2565b848454611474565b825550505050565b600090565b61152e611521565b6115398184846114fc565b505050565b5b8181101561155d57611552600082611526565b60018101905061153f565b5050565b601f8211156115a25761157381611442565b61157c84611457565b8101602085101561158b578190505b61159f61159785611457565b83018261153e565b50505b505050565b600082821c905092915050565b60006115c5600019846008026115a7565b1980831691505092915050565b60006115de83836115b4565b9150826002028217905092915050565b6115f782610e86565b67ffffffffffffffff8111156116105761160f6110da565b5b61161a82546113a5565b611625828285611561565b600060209050601f8311600181146116585760008415611646578287015190505b61165085826115d2565b8655506116b8565b601f19841661166686611442565b60005b8281101561168e57848901518255600182019150602085019450602081019050611669565b868310156116ab57848901516116a7601f8916826115b4565b8355505b6001600288020188555050505b505050505050565b600060208201905081810360008301526116da8184611059565b905092915050565b7f43616e6e6f742072656d6f766520766f7465722077686f2068617320616c726560008201527f61647920766f7465640000000000000000000000000000000000000000000000602082015250565b600061173e602983611048565b9150611749826116e2565b604082019050919050565b6000602082019050818103600083015261176d81611731565b9050919050565b7f596f75206861766520616c726561647920766f74656400000000000000000000600082015250565b60006117aa601683611048565b91506117b582611774565b602082019050919050565b600060208201905081810360008301526117d98161179d565b9050919050565b7f496e76616c69642063616e646964617465204944000000000000000000000000600082015250565b6000611816601483611048565b9150611821826117e0565b602082019050919050565b6000602082019050818103600083015261184581611809565b9050919050565b7f4e487b7100000000000000000000000000000000000000000000000000000000600052603260045260246000fd5b7f4e487b7100000000000000000000000000000000000000000000000000000000600052601160045260246000fd5b60006118b582610ce7565b91507fffffffffffffffffffffffffffffffffffffffffffffffffffffffffffffffff82036118e7576118e661187b565b5b60018201905091905056fea2646970667358221220b42cd94f176e4582a86120186f919616e82ab056232d21cdaa24ab17cd2df21164736f6c634300081c0033",
  "linkReferences": {},
  "deployedLinkReferences": {}
}