{
  "_format": "hh-sol-artifact-1",
  "contractName": "Voting",
  "sourceName": "contracts/Voting.sol",
  "abi": [
    {
      "inputs": [],
      "stateMutability": "nonpayable",
      "type": "constructor"
    },
    {
      "anonymous": false,
      "inputs": [
        {
          "indexed": true,
          "internalType": "uint256",
          "name": "candidateId",
          "type": "uint256"
        },
        {
          "indexed": false,
          "internalType": "string",
          "name": "name",
          "type": "string"
        }
      ],
      "name": "CandidateAdded",
      "type": "event"
    },
    {
      "anonymous": false,
      "inputs": [
        {
          "indexed": true,
          "internalType": "address",
          "name": "voter",
          "type": "address"
        },
        {
          "indexed": true,
          "internalType": "uint256",
          "name": "candidateId",
          "type": "uint256"
        }
      ],
      "name": "Voted",
      "type": "event"
    },
    {
      "inputs": [
        {
          "internalType": "string",
          "name": "_name",
          "type": "string"
        }
      ],
      "name": "addCandidate",
      "outputs": [],
      "stateMutability": "nonpayable",
      "type": "function"
    },
    {
      "inputs": [
        {
          "internalType": "uint256",
          "name": "",
          "type": "uint256"
        }
      ],
      "name": "candidates",
      "outputs": [
        {
          "internalType": "uint256",
          "name": "id",
          "type": "uint256"
        },
        {
          "internalType": "string",
          "name": "name",
          "type": "string"
        },
        {
          "internalType": "uint256",
          "name": "voteCount",
          "type": "uint256"
        }
      ],
      "stateMutability": "view",
      "type": "function"
    },
    {
      "inputs": [],
      "name": "getAllCandidates",
      "outputs": [
        {
          "components": [
            {
              "internalType": "uint256",
              "name": "id",
              "type": "uint256"
            },
            {
              "internalType": "string",
              "name": "name",
              "type": "string"
            },
            {
              "internalType": "uint256",
              "name": "voteCount",
              "type": "uint256"
            }
          ],
          "internalType": "struct Voting.Candidate[]",
          "name": "",
          "type": "tuple[]"
        }
      ],
      "stateMutability": "view",
      "type": "function"
    },
    {
      "inputs": [],
      "name": "getCandidateCount",
      "outputs": [
        {
          "internalType": "uint256",
          "name": "",
          "type": "uint256"
        }
      ],
      "stateMutability": "view",
      "type": "function"
    },
    {
      "inputs": [
        {
          "internalType": "address",
          "name": "",
          "type": "address"
        }
      ],
      "name": "hasVoted",
      "outputs": [
        {
          "internalType": "bool",
          "name": "",
          "type": "bool"
        }
      ],
      "stateMutability": "view",
      "type": "function"
    },
    {
      "inputs": [],
      "name": "owner",
      "outputs": [
        {
          "internalType": "address",
          "name": "",
          "type": "address"
        }
      ],
      "stateMutability": "view",
      "type": "function"
    },
    {
      "inputs": [
        {
          "internalType": "uint256",
          "name": "_candidateId",
          "type": "uint256"
        }
      ],
      "name": "vote",
      "outputs": [],
      "stateMutability": "nonpayable",
      "type": "function"
    }
  ],
  "bytecode": "0x6080604052348015600f57600080fd5b50336000806101000a81548173ffffffffffffffffffffffffffffffffffffffff021916908373ffffffffffffffffffffffffffffffffffffffff16021790555061112d8061005f6000396000f3fe608060405234801561001057600080fd5b506004361061007d5760003560e01c806330a563471161005b57806330a56347146100ec5780633477ee2e1461010a578063462e91ec1461013c5780638da5cb5b146101585761007d565b80630121b93f1461008257806309eef43e1461009e5780632e6997fe146100ce575b600080fd5b61009c600480360381019061009791906106cc565b610176565b005b6100b860048036038101906100b39190610757565b610323565b6040516100c5919061079f565b60405180910390f35b6100d6610343565b6040516100e3919061096b565b60405180910390f35b6100f4610448565b604051610101919061099c565b60405180910390f35b610124600480360381019061011f91906106cc565b610455565b60405161013393929190610a01565b60405180910390f35b61015660048036038101906101519190610b74565b610517565b005b61016061065e565b60405161016d9190610bcc565b60405180910390f35b600160003373ffffffffffffffffffffffffffffffffffffffff1673ffffffffffffffffffffffffffffffffffffffff16815260200190815260200160002060009054906101000a900460ff1615610203576040517f08c379a00000000000000000000000000000000000000000000000000000000081526004016101fa90610c33565b60405180910390fd5b600280549050811061024a576040517f08c379a000000000000000000000000000000000000000000000000000000000815260040161024190610c9f565b60405180910390fd5b60018060003373ffffffffffffffffffffffffffffffffffffffff1673ffffffffffffffffffffffffffffffffffffffff16815260200190815260200160002060006101000a81548160ff021916908315150217905550600281815481106102b5576102b4610cbf565b5b906000526020600020906003020160020160008154809291906102d790610d1d565b9190505550803373ffffffffffffffffffffffffffffffffffffffff167f4d99b957a2bc29a30ebd96a7be8e68fe50a3c701db28a91436490b7d53870ca460405160405180910390a350565b60016020528060005260406000206000915054906101000a900460ff1681565b60606002805480602002602001604051908101604052809291908181526020016000905b8282101561043f5783829060005260206000209060030201604051806060016040529081600082015481526020016001820180546103a490610d94565b80601f01602080910402602001604051908101604052809291908181526020018280546103d090610d94565b801561041d5780601f106103f25761010080835404028352916020019161041d565b820191906000526020600020905b81548152906001019060200180831161040057829003601f168201915b5050505050815260200160028201548152505081526020019060010190610367565b50505050905090565b6000600280549050905090565b6002818154811061046557600080fd5b906000526020600020906003020160009150905080600001549080600101805461048e90610d94565b80601f01602080910402602001604051908101604052809291908181526020018280546104ba90610d94565b80156105075780601f106104dc57610100808354040283529160200191610507565b820191906000526020600020905b8154815290600101906020018083116104ea57829003601f168201915b5050505050908060020154905083565b60008054906101000a900473ffffffffffffffffffffffffffffffffffffffff1673ffffffffffffffffffffffffffffffffffffffff163373ffffffffffffffffffffffffffffffffffffffff16146105a5576040517f08c379a000000000000000000000000000000000000000000000000000000000815260040161059c90610e37565b60405180910390fd5b6000600280549050905060026040518060600160405280838152602001848152602001600081525090806001815401808255809150506001900390600052602060002090600302016000909190919091506000820151816000015560208201518160010190816106159190611003565b50604082015181600201555050807fe83b2a43e7e82d975c8a0a6d2f045153c869e111136a34d1889ab7b598e396a38360405161065291906110d5565b60405180910390a25050565b60008054906101000a900473ffffffffffffffffffffffffffffffffffffffff1681565b6000604051905090565b600080fd5b600080fd5b6000819050919050565b6106a981610696565b81146106b457600080fd5b50565b6000813590506106c6816106a0565b92915050565b6000602082840312156106e2576106e161068c565b5b60006106f0848285016106b7565b91505092915050565b600073ffffffffffffffffffffffffffffffffffffffff82169050919050565b6000610724826106f9565b9050919050565b61073481610719565b811461073f57600080fd5b50565b6000813590506107518161072b565b92915050565b60006020828403121561076d5761076c61068c565b5b600061077b84828501610742565b91505092915050565b60008115159050919050565b61079981610784565b82525050565b60006020820190506107b46000830184610790565b92915050565b600081519050919050565b600082825260208201905092915050565b6000819050602082019050919050565b6107ef81610696565b82525050565b600081519050919050565b600082825260208201905092915050565b60005b8381101561082f578082015181840152602081019050610814565b60008484015250505050565b6000601f19601f8301169050919050565b6000610857826107f5565b6108618185610800565b9350610871818560208601610811565b61087a8161083b565b840191505092915050565b600060608301600083015161089d60008601826107e6565b50602083015184820360208601526108b5828261084c565b91505060408301516108ca60408601826107e6565b508091505092915050565b60006108e18383610885565b905092915050565b6000602082019050919050565b6000610901826107ba565b61090b81856107c5565b93508360208202850161091d856107d6565b8060005b85811015610959578484038952815161093a85826108d5565b9450610945836108e9565b925060208a01995050600181019050610921565b50829750879550505050505092915050565b6000602082019050818103600083015261098581846108f6565b905092915050565b61099681610696565b82525050565b60006020820190506109b1600083018461098d565b92915050565b600082825260208201905092915050565b60006109d3826107f5565b6109dd81856109b7565b93506109ed818560208601610811565b6109f68161083b565b840191505092915050565b6000606082019050610a16600083018661098d565b8181036020830152610a2881856109c8565b9050610a37604083018461098d565b949350505050565b600080fd5b600080fd5b7f4e487b7100000000000000000000000000000000000000000000000000000000600052604160045260246000fd5b610a818261083b565b810181811067ffffffffffffffff82111715610aa057610a9f610a49565b5b80604052505050565b6000610ab3610682565b9050610abf8282610a78565b919050565b600067ffffffffffffffff821115610adf57610ade610a49565b5b610ae88261083b565b9050602081019050919050565b82818337600083830152505050565b6000610b17610b1284610ac4565b610aa9565b905082815260208101848484011115610b3357610b32610a44565b5b610b3e848285610af5565b509392505050565b600082601f830112610b5b57610b5a610a3f565b5b8135610b6b848260208601610b04565b91505092915050565b600060208284031215610b8a57610b8961068c565b5b600082013567ffffffffffffffff811115610ba857610ba7610691565b5b610bb484828501610b46565b91505092915050565b610bc681610719565b82525050565b6000602082019050610be16000830184610bbd565b92915050565b7f596f75206861766520616c726561647920766f74656400000000000000000000600082015250565b6000610c1d6016836109b7565b9150610c2882610be7565b602082019050919050565b60006020820190508181036000830152610c4c81610c10565b9050919050565b7f496e76616c69642063616e646964617465204944000000000000000000000000600082015250565b6000610c896014836109b7565b9150610c9482610c53565b602082019050919050565b60006020820190508181036000830152610cb881610c7c565b9050919050565b7f4e487b7100000000000000000000000000000000000000000000000000000000600052603260045260246000fd5b7f4e487b7100000000000000000000000000000000000000000000000000000000600052601160045260246000fd5b6000610d2882610696565b91507fffffffffffffffffffffffffffffffffffffffffffffffffffffffffffffffff8203610d5a57610d59610cee565b5b600182019050919050565b7f4e487b7100000000000000000000000000000000000000000000000000000000600052602260045260246000fd5b60006002820490506001821680610dac57607f821691505b602082108103610dbf57610dbe610d65565b5b50919050565b7f4f6e6c79206f776e65722063616e20706572666f726d2074686973206163746960008201527f6f6e000000000000000000000000000000000000000000000000000000000000602082015250565b6000610e216022836109b7565b9150610e2c82610dc5565b604082019050919050565b60006020820190508181036000830152610e5081610e14565b9050919050565b60008190508160005260206000209050919050565b60006020601f8301049050919050565b600082821b905092915050565b600060088302610eb97fffffffffffffffffffffffffffffffffffffffffffffffffffffffffffffffff82610e7c565b610ec38683610e7c565b95508019841693508086168417925050509392505050565b6000819050919050565b6000610f00610efb610ef684610696565b610edb565b610696565b9050919050565b6000819050919050565b610f1a83610ee5565b610f2e610f2682610f07565b848454610e89565b825550505050565b600090565b610f43610f36565b610f4e818484610f11565b505050565b5b81811015610f7257610f67600082610f3b565b600181019050610f54565b5050565b601f821115610fb757610f8881610e57565b610f9184610e6c565b81016020851015610fa0578190505b610fb4610fac85610e6c565b830182610f53565b50505b505050565b600082821c905092915050565b6000610fda60001984600802610fbc565b1980831691505092915050565b6000610ff38383610fc9565b9150826002028217905092915050565b61100c826107f5565b67ffffffffffffffff81111561102557611024610a49565b5b61102f8254610d94565b61103a828285610f76565b600060209050601f83116001811461106d576000841561105b578287015190505b6110658582610fe7565b8655506110cd565b601f19841661107b86610e57565b60005b828110156110a35784890151825560018201915060208501945060208101905061107e565b868310156110c057848901516110bc601f891682610fc9565b8355505b6001600288020188555050505b505050505050565b600060208201905081810360008301526110ef81846109c8565b90509291505056fea2646970667358221220c174bbce52d2cddec52582ada5db07996484a3914b09209d0cec5b8748dcde5a64736f6c634300081c0033",
  "linkReferences": {},
  "deployedLinkReferences": {}
}